{
  "_format": "hh-sol-artifact-1",
  "contractName": "FoodSupplyChain",
  "sourceName": "contracts/FoodSupplyChain.sol",
  "abi": [
    {
      "anonymous": false,
      "inputs": [
        {
          "indexed": true,
          "internalType": "uint256",
          "name": "productId",
          "type": "uint256"
        },
        {
          "indexed": false,
          "internalType": "string",
          "name": "name",
          "type": "string"
        },
        {
          "indexed": false,
          "internalType": "string",
          "name": "origin",
          "type": "string"
        },
        {
          "indexed": false,
          "internalType": "string",
          "name": "farmerId",
          "type": "string"
        },
        {
          "indexed": true,
          "internalType": "address",
          "name": "farmerAddress",
          "type": "address"
        },
        {
          "indexed": false,
          "internalType": "uint256",
          "name": "timestamp",
          "type": "uint256"
        }
      ],
      "name": "ProductAdded",
      "type": "event"
    },
    {
      "anonymous": false,
      "inputs": [
        {
          "indexed": true,
          "internalType": "uint256",
          "name": "productId",
          "type": "uint256"
        },
        {
          "indexed": true,
          "internalType": "enum FoodSupplyChain.Stage",
          "name": "newStage",
          "type": "uint8"
        },
        {
          "indexed": false,
          "internalType": "string",
          "name": "location",
          "type": "string"
        },
        {
          "indexed": false,
          "internalType": "string",
          "name": "actorName",
          "type": "string"
        },
        {
          "indexed": false,
          "internalType": "string",
          "name": "actorRole",
          "type": "string"
        },
        {
          "indexed": true,
          "internalType": "address",
          "name": "actorAddress",
          "type": "address"
        },
        {
          "indexed": false,
          "internalType": "uint256",
          "name": "timestamp",
          "type": "uint256"
        }
      ],
      "name": "StageUpdated",
      "type": "event"
    },
    {
      "inputs": [
        {
          "internalType": "string",
          "name": "name",
          "type": "string"
        },
        {
          "internalType": "string",
          "name": "origin",
          "type": "string"
        },
        {
          "internalType": "string",
          "name": "farmerId",
          "type": "string"
        }
      ],
      "name": "addProduct",
      "outputs": [
        {
          "internalType": "uint256",
          "name": "productId",
          "type": "uint256"
        }
      ],
      "stateMutability": "nonpayable",
      "type": "function"
    },
    {
      "inputs": [
        {
          "internalType": "enum FoodSupplyChain.Stage",
          "name": "stage",
          "type": "uint8"
        }
      ],
      "name": "getActorRole",
      "outputs": [
        {
          "internalType": "string",
          "name": "",
          "type": "string"
        }
      ],
      "stateMutability": "pure",
      "type": "function"
    },
    {
      "inputs": [],
      "name": "getAllProductIds",
      "outputs": [
        {
          "internalType": "uint256[]",
          "name": "",
          "type": "uint256[]"
        }
      ],
      "stateMutability": "view",
      "type": "function"
    },
    {
      "inputs": [
        {
          "internalType": "uint256",
          "name": "productId",
          "type": "uint256"
        }
      ],
      "name": "getProduct",
      "outputs": [
        {
          "components": [
            {
              "internalType": "uint256",
              "name": "id",
              "type": "uint256"
            },
            {
              "internalType": "string",
              "name": "name",
              "type": "string"
            },
            {
              "internalType": "string",
              "name": "origin",
              "type": "string"
            },
            {
              "internalType": "string",
              "name": "farmerId",
              "type": "string"
            },
            {
              "internalType": "enum FoodSupplyChain.Stage",
              "name": "currentStage",
              "type": "uint8"
            },
            {
              "internalType": "string",
              "name": "currentLocation",
              "type": "string"
            },
            {
              "internalType": "string",
              "name": "currentActor",
              "type": "string"
            },
            {
              "internalType": "string",
              "name": "currentActorRole",
              "type": "string"
            },
            {
              "internalType": "address",
              "name": "registeredBy",
              "type": "address"
            },
            {
              "internalType": "uint256",
              "name": "createdAt",
              "type": "uint256"
            },
            {
              "internalType": "uint256",
              "name": "updatedAt",
              "type": "uint256"
            },
            {
              "internalType": "bool",
              "name": "exists",
              "type": "bool"
            }
          ],
          "internalType": "struct FoodSupplyChain.Product",
          "name": "",
          "type": "tuple"
        }
      ],
      "stateMutability": "view",
      "type": "function"
    },
    {
      "inputs": [],
      "name": "getProductCount",
      "outputs": [
        {
          "internalType": "uint256",
          "name": "",
          "type": "uint256"
        }
      ],
      "stateMutability": "view",
      "type": "function"
    },
    {
      "inputs": [
        {
          "internalType": "uint256",
          "name": "productId",
          "type": "uint256"
        }
      ],
      "name": "getProductHistory",
      "outputs": [
        {
          "components": [
            {
              "internalType": "enum FoodSupplyChain.Stage",
              "name": "stage",
              "type": "uint8"
            },
            {
              "internalType": "string",
              "name": "location",
              "type": "string"
            },
            {
              "internalType": "string",
              "name": "actorName",
              "type": "string"
            },
            {
              "internalType": "string",
              "name": "actorRole",
              "type": "string"
            },
            {
              "internalType": "address",
              "name": "actorAddress",
              "type": "address"
            },
            {
              "internalType": "uint256",
              "name": "timestamp",
              "type": "uint256"
            }
          ],
          "internalType": "struct FoodSupplyChain.HistoryEntry[]",
          "name": "",
          "type": "tuple[]"
        }
      ],
      "stateMutability": "view",
      "type": "function"
    },
    {
      "inputs": [
        {
          "internalType": "uint256",
          "name": "productId",
          "type": "uint256"
        },
        {
          "internalType": "enum FoodSupplyChain.Stage",
          "name": "newStage",
          "type": "uint8"
        },
        {
          "internalType": "string",
          "name": "location",
          "type": "string"
        },
        {
          "internalType": "string",
          "name": "actorName",
          "type": "string"
        }
      ],
      "name": "updateStage",
      "outputs": [],
      "stateMutability": "nonpayable",
      "type": "function"
    }
  ],
  "bytecode": "0x6080604052600160005534801561001557600080fd5b50611bd6806100256000396000f3fe608060405234801561001057600080fd5b506004361061007d5760003560e01c806357a096a11161005b57806357a096a1146100d4578063663c01af146100f4578063b9db15b414610109578063eeb89b811461012957600080fd5b80630bc4815a146100825780630e34b00e146100ab5780634a348da9146100cc575b600080fd5b6100956100903660046113f3565b61013e565b6040516100a2919061145b565b60405180910390f35b6100be6100b93660046114b7565b6102af565b6040519081526020016100a2565b6001546100be565b6100e76100e2366004611551565b61082c565b6040516100a291906115a2565b6100fc610acc565b6040516100a29190611672565b61011c610117366004611551565b610b24565b6040516100a291906116b6565b61013c6101373660046117d4565b610f62565b005b606060008260058111156101545761015461156a565b0361017b5750506040805180820190915260068152652330b936b2b960d11b602082015290565b600182600581111561018f5761018f61156a565b036101b9575050604080518082019091526009815268283937b1b2b9b9b7b960b91b602082015290565b60028260058111156101cd576101cd61156a565b036101ff5750506040805180820190915260118152702bb0b932b437bab9b29026b0b730b3b2b960791b602082015290565b60038260058111156102135761021361156a565b0361024357505060408051808201909152600f81526e2232b634bb32b93c90223934bb32b960891b602082015290565b60048260058111156102575761025761156a565b0361028b57505060408051808201909152601381527229bab832b936b0b935b2ba1026b0b730b3b2b960691b602082015290565b505060408051808201909152600881526721bab9ba37b6b2b960c11b602082015290565b6000856103035760405162461bcd60e51b815260206004820152601860248201527f50726f64756374206e616d65206973207265717569726564000000000000000060448201526064015b60405180910390fd5b836103455760405162461bcd60e51b815260206004820152601260248201527113dc9a59da5b881a5cc81c995c5d5a5c995960721b60448201526064016102fa565b8161038a5760405162461bcd60e51b815260206004820152601560248201527411985c9b595c881251081a5cc81c995c5d5a5c9959605a1b60448201526064016102fa565b5060008054906001908061039e8385611855565b9250508190555060405180610180016040528082815260200188888080601f016020809104026020016040519081016040528093929190818152602001838380828437600092019190915250505090825250604080516020601f890181900481028201810190925287815291810191908890889081908401838280828437600092019190915250505090825250604080516020601f8701819004810282018101909252858152918101919086908690819084018382808284376000920182905250938552505060209092019150815260200186868080601f016020809104026020016040519081016040528093929190818152602001838380828437600092019190915250505090825250604080516020601f8701819004810282018101909252858152918101919086908690819084018382808284376000920182905250938552505060408051808201825260068152652330b936b2b960d11b60208281019190915280860191909152338286015242606086018190526080860152600160a09095018590528684526002815292208451815591840151919283019161054691508261190d565b506040820151600282019061055b908261190d565b5060608201516003820190610570908261190d565b50608082015160048201805460ff191660018360058111156105945761059461156a565b021790555060a082015160058201906105ad908261190d565b5060c082015160068201906105c2908261190d565b5060e082015160078201906105d7908261190d565b506101008201516008820180546001600160a01b0319166001600160a01b039092169190911790556101208201516009820155610140820151600a82015561016090910151600b909101805460ff1916911515919091179055600180548082019091557fb10e2d527612073b26eecdfd717e6a320cf44b4afac2b0732d9fcbe2b7fa0cf601819055600081815260036020526040808220815160c08101909252918190815260200187878080601f016020809104026020016040519081016040528093929190818152602001838380828437600092019190915250505090825250604080516020601f880181900481028201810190925286815291810191908790879081908401838280828437600092018290525093855250506040805180820182526006808252652330b936b2b960d11b602083810191909152808701929092523392860192909252426060909501949094528554600181810188559684529390922084519390920290910180549394909384925060ff1916908360058111156107645761076461156a565b02179055506020820151600182019061077d908261190d565b5060408201516002820190610792908261190d565b50606082015160038201906107a7908261190d565b5060808201516004820180546001600160a01b0319166001600160a01b0390921691909117905560a090910151600590910155604051339082907f141b376bb3724e6a6e894b43077b77678c16cf571eb1d4c4f339e6aa5a79f2469061081a908b908b908b908b908b908b9042906119f6565b60405180910390a39695505050505050565b6000818152600260205260409020600b015460609060ff166108605760405162461bcd60e51b81526004016102fa90611a47565b600082815260036020908152604080832080548251818502810185019093528083529193909284015b82821015610ac1576000848152602090206040805160c08101909152600684029091018054829060ff1660058111156108c4576108c461156a565b60058111156108d5576108d561156a565b81526020016001820180546108e990611884565b80601f016020809104026020016040519081016040528092919081815260200182805461091590611884565b80156109625780601f1061093757610100808354040283529160200191610962565b820191906000526020600020905b81548152906001019060200180831161094557829003601f168201915b5050505050815260200160028201805461097b90611884565b80601f01602080910402602001604051908101604052809291908181526020018280546109a790611884565b80156109f45780601f106109c9576101008083540402835291602001916109f4565b820191906000526020600020905b8154815290600101906020018083116109d757829003601f168201915b50505050508152602001600382018054610a0d90611884565b80601f0160208091040260200160405190810160405280929190818152602001828054610a3990611884565b8015610a865780601f10610a5b57610100808354040283529160200191610a86565b820191906000526020600020905b815481529060010190602001808311610a6957829003601f168201915b505050918352505060048201546001600160a01b03166020808301919091526005909201546040909101529082526001929092019101610889565b505050509050919050565b60606001805480602002602001604051908101604052809291908181526020018280548015610b1a57602002820191906000526020600020905b815481526020019060010190808311610b06575b5050505050905090565b610b2c611362565b6000828152600260205260409020600b015460ff16610b5d5760405162461bcd60e51b81526004016102fa90611a47565b600260008381526020019081526020016000206040518061018001604052908160008201548152602001600182018054610b9690611884565b80601f0160208091040260200160405190810160405280929190818152602001828054610bc290611884565b8015610c0f5780601f10610be457610100808354040283529160200191610c0f565b820191906000526020600020905b815481529060010190602001808311610bf257829003601f168201915b50505050508152602001600282018054610c2890611884565b80601f0160208091040260200160405190810160405280929190818152602001828054610c5490611884565b8015610ca15780601f10610c7657610100808354040283529160200191610ca1565b820191906000526020600020905b815481529060010190602001808311610c8457829003601f168201915b50505050508152602001600382018054610cba90611884565b80601f0160208091040260200160405190810160405280929190818152602001828054610ce690611884565b8015610d335780601f10610d0857610100808354040283529160200191610d33565b820191906000526020600020905b815481529060010190602001808311610d1657829003601f168201915b5050509183525050600482015460209091019060ff166005811115610d5a57610d5a61156a565b6005811115610d6b57610d6b61156a565b8152602001600582018054610d7f90611884565b80601f0160208091040260200160405190810160405280929190818152602001828054610dab90611884565b8015610df85780601f10610dcd57610100808354040283529160200191610df8565b820191906000526020600020905b815481529060010190602001808311610ddb57829003601f168201915b50505050508152602001600682018054610e1190611884565b80601f0160208091040260200160405190810160405280929190818152602001828054610e3d90611884565b8015610e8a5780601f10610e5f57610100808354040283529160200191610e8a565b820191906000526020600020905b815481529060010190602001808311610e6d57829003601f168201915b50505050508152602001600782018054610ea390611884565b80601f0160208091040260200160405190810160405280929190818152602001828054610ecf90611884565b8015610f1c5780601f10610ef157610100808354040283529160200191610f1c565b820191906000526020600020905b815481529060010190602001808311610eff57829003601f168201915b505050918352505060088201546001600160a01b0316602082015260098201546040820152600a8201546060820152600b9091015460ff16151560809091015292915050565b6000868152600260205260409020600b015460ff16610f935760405162461bcd60e51b81526004016102fa90611a47565b82610fd75760405162461bcd60e51b8152602060048201526014602482015273131bd8d85d1a5bdb881a5cc81c995c5d5a5c995960621b60448201526064016102fa565b8061101d5760405162461bcd60e51b81526020600482015260166024820152751058dd1bdc881b985b59481a5cc81c995c5d5a5c995960521b60448201526064016102fa565b600560008781526002602052604090206004015460ff1660058111156110455761104561156a565b036110895760405162461bcd60e51b8152602060048201526014602482015273141c9bd91d58dd08185b1c9958591e481cdbdb1960621b60448201526064016102fa565b60008681526002602052604090206004015460ff1660058111156110af576110af61156a565b6110ba906001611a77565b60ff168560058111156110cf576110cf61156a565b60ff161461111f5760405162461bcd60e51b815260206004820152601e60248201527f5374616765206d75737420616476616e6365206279206f6e652073746570000060448201526064016102fa565b600061112a8661013e565b6000888152600260205260409020600481018054929350909188919060ff1916600183600581111561115e5761115e61156a565b021790555060058101611172868883611a90565b5060068101611182848683611a90565b5060078101611191838261190d565b5042600a82015560008881526003602052604090819020815160c0810190925290808960058111156111c5576111c561156a565b815260200188888080601f016020809104026020016040519081016040528093929190818152602001838380828437600092019190915250505090825250604080516020601f89018190048102820181019092528781529181019190889088908190840183828082843760009201829052509385525050506020808301879052336040840152426060909301929092528354600181810186559482529190208251600690920201805492939092839160ff199091169083600581111561128d5761128d61156a565b0217905550602082015160018201906112a6908261190d565b50604082015160028201906112bb908261190d565b50606082015160038201906112d0908261190d565b5060808201516004820180546001600160a01b0319166001600160a01b0390921691909117905560a090910151600591820155339088908111156113165761131661156a565b897f7fa165a13a07a9bdc2cd131f83f04b1a51abfcf797160b4443a14bdca813b2fc89898989894260405161135096959493929190611b51565b60405180910390a45050505050505050565b604051806101800160405280600081526020016060815260200160608152602001606081526020016000600581111561139d5761139d61156a565b815260200160608152602001606081526020016060815260200160006001600160a01b0316815260200160008152602001600081526020016000151581525090565b8035600681106113ee57600080fd5b919050565b60006020828403121561140557600080fd5b61140e826113df565b9392505050565b6000815180845260005b8181101561143b5760208185018101518683018201520161141f565b506000602082860101526020601f19601f83011685010191505092915050565b60208152600061140e6020830184611415565b60008083601f84011261148057600080fd5b50813567ffffffffffffffff81111561149857600080fd5b6020830191508360208285010111156114b057600080fd5b9250929050565b600080600080600080606087890312156114d057600080fd5b863567ffffffffffffffff808211156114e857600080fd5b6114f48a838b0161146e565b9098509650602089013591508082111561150d57600080fd5b6115198a838b0161146e565b9096509450604089013591508082111561153257600080fd5b5061153f89828a0161146e565b979a9699509497509295939492505050565b60006020828403121561156357600080fd5b5035919050565b634e487b7160e01b600052602160045260246000fd5b6006811061159e57634e487b7160e01b600052602160045260246000fd5b9052565b60006020808301818452808551808352604092508286019150828160051b87010184880160005b8381101561166457603f19898403018552815160c06115e9858351611580565b88820151818a8701526115fe82870182611415565b91505087820151858203898701526116168282611415565b915050606080830151868303828801526116308382611415565b6080858101516001600160a01b03169089015260a094850151949097019390935250505093860193908601906001016115c9565b509098975050505050505050565b6020808252825182820181905260009190848201906040850190845b818110156116aa5783518352928401929184019160010161168e565b50909695505050505050565b6020815281516020820152600060208301516101808060408501526116df6101a0850183611415565b91506040850151601f19808685030160608701526116fd8483611415565b9350606087015191508086850301608087015261171a8483611415565b93506080870151915061173060a0870183611580565b60a08701519150808685030160c087015261174b8483611415565b935060c08701519150808685030160e08701526117688483611415565b935060e087015191506101008187860301818801526117878584611415565b945080880151925050506101206117a8818701836001600160a01b03169052565b860151610140868101919091528601516101608087019190915290950151151593019290925250919050565b600080600080600080608087890312156117ed57600080fd5b863595506117fd602088016113df565b9450604087013567ffffffffffffffff8082111561181a57600080fd5b6118268a838b0161146e565b9096509450606089013591508082111561153257600080fd5b634e487b7160e01b600052601160045260246000fd5b808201808211156118685761186861183f565b92915050565b634e487b7160e01b600052604160045260246000fd5b600181811c9082168061189857607f821691505b6020821081036118b857634e487b7160e01b600052602260045260246000fd5b50919050565b601f82111561190857600081815260208120601f850160051c810160208610156118e55750805b601f850160051c820191505b81811015611904578281556001016118f1565b5050505b505050565b815167ffffffffffffffff8111156119275761192761186e565b61193b816119358454611884565b846118be565b602080601f83116001811461197057600084156119585750858301515b600019600386901b1c1916600185901b178555611904565b600085815260208120601f198616915b8281101561199f57888601518255948401946001909101908401611980565b50858210156119bd5787850151600019600388901b60f8161c191681555b5050505050600190811b01905550565b81835281816020850137506000828201602090810191909152601f909101601f19169091010190565b608081526000611a0a60808301898b6119cd565b8281036020840152611a1d81888a6119cd565b90508281036040840152611a328186886119cd565b91505082606083015298975050505050505050565b602080825260169082015275141c9bd91d58dd08191bd95cc81b9bdd08195e1a5cdd60521b604082015260600190565b60ff81811683821601908111156118685761186861183f565b67ffffffffffffffff831115611aa857611aa861186e565b611abc83611ab68354611884565b836118be565b6000601f841160018114611af05760008515611ad85750838201355b600019600387901b1c1916600186901b178355611b4a565b600083815260209020601f19861690835b82811015611b215786850135825560209485019460019092019101611b01565b5086821015611b3e5760001960f88860031b161c19848701351681555b505060018560011b0183555b5050505050565b608081526000611b6560808301888a6119cd565b8281036020840152611b788187896119cd565b90508281036040840152611b8c8186611415565b91505082606083015297965050505050505056fea26469706673582212208df3fe48ff3fa90380fb21c98d2c336248cbf0b4e409620f579dfd51a8fb6f0764736f6c63430008140033",
  "linkReferences": {},
  "deployedLinkReferences": {}
}